:020000040000fa
:080000000002040000000000f2
:020000040000fa
:100008009a0200009a0200009a0200009a02000078
:100018009a0200009a0200009a0200009a02000068
:100028009a0200009a0200009a0200009a02000058
:100038009a0200009a0200009a0200009a02000048
:020000040000fa
:020000040000fa
:10040000ef8f20000e7f22000e0188000000000008
:10041000000020000000e000020032000001200087
:10042000200288000c000700402621000100200067
:1004300011000700000020000000e0000200320070
:100440000000020000000000ee0f020000000000ab
:100450000040da000000fe004440a90040012000f6
:100460000000e0000300320000002000a00188002e
:100470004440a80000000600910188008000780038
:100480000000eb0015003700e280400032a0b4000d
:100490009101ba00e280400032a0b4009102ba009b
:1004a000e280400032a0b4000002eb00472bde00e7
:1004b000f507b200602ce10004003a000059eb009f
:1004c0008301e900fdff3e00040037006128e100e0
:1004d000010032000082eb00040007001101ba00a5
:1004e0000200e000e8ff3a00000006003159ba00bf
:1004f0008301e9000c0032002159ba008301e900b0
:10050000080032000400e00003003a00e2804000ee
:1005100032a0b400f5ff370011d9ba008301e90019
:10052000faff3a008100e800e180400032a0b40008
:10053000000006000040da000000fe0003f0a20008
:10054000889fbe008a9fbe008c1f780007010700ad
:100550000e0133006450e1004f0032006420e100de
:100560005200320003826c0007003b000905d000f6
:100570000306d000820f54000c065d000200390013
:100580000200320089017800030678008582550058
:1005900004003d000003fd008103fd008502ea0028
:1005a0008b854200840f720002003b006000100047
:1005b000e08018006011b8000005eb007a28e10027
:1005c0000a00390006007800c75ddd00f707b200b9
:1005d000878075002d003700828171000a01780044
:1005e000610560008180d1000080d3008502e900b0
:1005f000f9ff3b00060440008784480002003b00ee
:1006000060041400e0841c000988a3000700320085
:100610008a81710082817100610164008904d100c6
:100620000884d3008b05e800170037000978a30081
:1006300013003a000b00e000130034008b05e900c2
:100640000804440089844c000a4474000978a3001b
:100650000d003a000b00e000070034008b05e900b4
:100660000804440089844c0001003a000b0020007b
:100670000978a300f7ff32000001eb000200370009
:10068000828171000a0178007d0007000cf0a7004c
:1006900001f0a000c60037006420e10002003a002b
:1006a000838f6c00c60033000801be000200be004c
:1006b000bf003700889fbe008a9fbe008c1f780055
:1006c000aa000700b100330003866c006450e1000b
:1006d0002e0032006420e100330032006150e1005e
:1006e0002f0032006120e100310032008585550085
:1006f000eb07b000090020000804200005003700c7
:100700000804440089844c000a00310006034300b9
:1007100087834b000001530081815b00f8ff3300a9
:100720000203be000800a0000804440089844c00b5
:10073000f6ff3900c639dd00830173000100320085
:10074000130020008904d1000884d3000998a30075
:10075000050032000800a7000300a0008904d100b2
:100760000884d3008b05e8008904d1000884d300f5
:100770000001eb000281d2004100070001f0a1005e
:100780000cf0a70001f0a000890037006420e10010
:100790008b0032000801be000200be00f7ff3700e8
:1007a0006120e100860032006000b800f3ff3700ee
:1007b0000000200001f82700f0ff3700839f680049
:1007c0000100e00002003d0060001000e080180021
:1007d0000300e00002003d0060011100e08119000b
:1007e000ae0007004f00e00002003b006000100078
:1007f000e08018000000060014002000b700370059
:100800000001be00440007000470a70003f0a1002f
:1008100003f8a30013003a006509b100100032008c
:10082000090035006928e1000200350001002800b8
:100830000000050000004000818048008502e900ba
:10084000fcff3a0000000600f88f4200050035006a
:100850008100d1000080d3008502e800fcff3a004f
:10086000000006008000eb00000005004f89de005c
:1008700082017800b40037006011b800c200370070
:1008800081002000618055000b003d000b0020001e
:1008900061fe2f000100e1001d0034008281710023
:1008a000610164008904d1000884d3000000e800dd
:1008b000faff3a007100200061006400030070003c
:1008c000020060000900320061044400e0844c0032
:1008d0000988a500050032008b05e8006808e100e2
:1008e00002003a008904d1000884d300f20f2000ee
:1008f0000258e10005003d00c75ddd00f907b200c8
:100900008980750008007800000006000bf82700b9
:100910008b00780000000500c70ade00f107b20076
:10092000f50fb20008003200e1cf420002003200b1
:100930000170a00024000500810f7000010032004a
:100940000408050044000500810f700002003a0011
:10095000140005008502e9000000400081c0480045
:10096000fcff3b000170a000240005000004be0055
:10097000e9ff07000003be000405be000200be0040
:10098000e5ff0700844f7500000006000200be006e
:100990006450e100050036006420e10002003600ea
:1009a0000968a30001003a000800be000160a00031
:1009b0004f0678004f05be004f04be000000060041
:1009c000f0ff2f00f1ff2700f9ff3700889fbe00de
:1009d0008a9fbe008c1f7800e4ff0700ebff330006
:1009e00003866c006450e100240032006420e100c2
:1009f000270032006150e100220032006120e10056
:100a0000210032008b854200eb07b1000134b800b1
:100a1000003ab8000804420089844a00013ab8004c
:100a20000030b8008880400009014a00040033000b
:100a30000000400081804800020149008b05e90068
:100a4000c909dd008301700001003200130020009d
:100a5000c814de004814dd004709de001200b200b1
:100a6000c808de000884700085ff070001f0a100bf
:100a70000cf0a70001f0a000cdff37006120e100dd
:100a8000cfff32000801be000200be00f7ff3700b2
:100a90006150e100fcff3a00c9ff37006022b80056
:100aa000060220000000d0008180d2000482d20023
:100ab0008582d2000000a0000202520083825a0008
:100ac000030031000202420083824a000000a100bc
:100ad0000603e900f3ff3a0000000600889fbe000d
:100ae0008a9fbe00841f7800a0ff07004f00780097
:100af00011003300f0ff2f00838f6c0006003b00d5
:100b0000040565000a00a7000800370009f0a600e8
:100b10001000200008003700820f5400838f5c0013
:100b2000030039001000200001003e0000002000fa
:100b300009f0a7000000ea004f05be004f04be0008
:100b40000000e00000000600881f78000304780021
:100b50000300e00007003d0060001000e080180086
:100b600060011900e081190002003b0001f02d0036
:100b7000030037000400070008f0a70001f0a00000
:100b80004f04780000000600889fbe008a9fbe00c8
:100b9000008270000402710004827100260032009d
:100ba0000004be000200be006011b8006b09200006
:100bb000950220000182cf000a0039000541b100f2
:100bc0000082cf00070039000541b1000982cf0043
:100bd000040039000541b1000882cf00010039004e
:100be0000541b10005425200120032000a003b00ec
:100bf00082817100610164008100d1000080d30016
:100c00008984d3000884d3008b05e8000442e800ff
:100c1000f7ff3a00070037000804440089844c00bd
:100c200000004800818048008b05e9000442e9008b
:100c3000f9ff3a0012ff07004f05be004f04be0047
:100c4000000006000c003700b0417800b1cf510021
:100c500006003200100020009542780094cf520028
:100c60000b0031000080eb00000006000304e000f0
:100c7000060032000201e9000102780080027800db
:100c80000200e000f0ff3a00000005000000eb0069
:100c900000000600ee874700889fbe008a9fbe00c6
:100ca0008c9fbe008e1f7800f0b79f000106780071
:100cb0008205780000047800080578000a047800ae
:100cc000b84678000d00fb008c0007000000e00033
:100cd000f9ff3a00d0c2b30080cf560003003200c3
:100ce00000c0e90080cf560002003a000a05e80083
:100cf00001003700804678000b00e0000500350059
:100d0000e18f55000300320040022000808f550023
:100d1000060034006044b8000c00e00070003200af
:100d20007fb09700000e78006d0037000b00e000e8
:100d30000e003200f08f55001a003a0000c3b300d5
:100d40009a4f100017003a001a40900081c7b30074
:100d5000814f50000300320081c5b300814f500025
:100d600010003a000a85e8000e003700ab002000b2
:100d700000c3b3009a4f10000a003a001a409000d6
:100d800081c7b300814f5000040032008b00200067
:100d900081c5b300814f500002003a000a85e80087
:100da0000b0120000a00780000027800040078009f
:100db00001c3b300b0cf1000fbff3200040778007e
:100dc0006044b800b4b79f000d00370001852000d3
:100dd00081405000c1ef9f006159b9000800be007a
:100de000650007004fea97000401fb00cf91de0089
:100df000c8b79f00d9b79f00020440008384480011
:100e00008e0278003e00fb0085bf9f004300070074
:100e10000b01780080007800008520004c0007005e
:100e20008fba97000000e000e8ff3a003fb2970059
:100e3000850f550005003a006044b8000c00e00042
:100e400027003200ffb297002400370004825200ce
:100e50005087200060c07d000000fb0000025200af
:100e60001700330011003a004fe997000200fb0021
:100e7000cf80de000000540081805c00800f5400b1
:100e8000818f5c00090039006159b90085bf9f005e
:100e900002ff07008fba97004fb19700dfb19700ac
:100ea000820f5000838f580005003200200220007e
:100eb000d04788000084eb008084eb0005003700f9
:100ec000d0c2b30080cf560002003a006004140084
:100ed000e0841c000c00e00001003200050e7800e8
:100ee0000800be004f0778004f06be004f05be0049
:100ef0004f04be00ef00b100000006006900e100f1
:100f0000040035006d00e100030034000002b10070
:100f1000010032000000050010000500800078008c
:100f20001104b100030035009101b10001003c0043
:100f30000050a00000000600e04780000000e00034
:100f40000100320000000100a08f20000000060018
:100f500003003700b0cf1000050032000201e900a5
:100f6000800178000200e000faff3a00000005006e
:100f70000300780000000600020ab900001bb90057
:100f80000200b8008100420081004300000006001a
:020000040000fa
:100f900050520000494e0000542000000d00000097
:100fa0004d310000004d0000320000004d330000c4
:080fb000004f00004e0000009c
:020000040000fa
:100fb8000600fa0020479800210798002e4090006c
:100fc8000004e0000c0032002e0090004200dd001a
:100fd800000f78001e0078008000eb000001be00c2
:100fe8000068290081092000f2fd0700000f780041
:100ff8001e0fe9000b0037002e0090004400dd00b2
:10100800000f78001e0078008000eb000001be0091
:101018000068290081092000e6fd0700000f78001c
:101028001e0fe9001e0078000080fa00000006008c
:101038000200fa00004f7800114798001e4078001f
:10104800e14f50000a003a00000000001111800032
:1010580000102000008060000000e000fbff32006c
:101068001e4090000080fb00201188000c00370013
:101078001e407800e24f500009003a0000000000ce
:101088009111800000102000008060000000e00046
:10109800fbff32001e4090000080fb00a01188007a
:1010a8000080fa00000006000200fa00004f7800f5
:1010b8001e407800e14f500008003a000000000090
:1010c80010118000610060000000e000fcff3200a9
:1010d80030118000004078000c0037001e40780076
:1010e800e24f500008003a00000000009011800014
:1010f800610060000000e000fcff3200b0118000d9
:101108000040780001003700000037000080fa0036
:10111800000006000600fa00204798002107980002
:101128000040eb00004f78001e80fb00ae009000ee
:1011380000804000104078001e4fe8008040780092
:101148002e409000baff07001e80fb00ae00900002
:101158000080400010407800ed4f5000f2ff3a0048
:10116800d1c0b3002e409000b1ff07000080fa0004
:10117800000006000200fa00004f780011479800ae
:101188001e407800e14f50000b003a001e409000ce
:10119800614060000080fb004f00dd00021180000c
:1011a800f1ff270081006100010070000011880034
:1011b8002342a8000d0037001e407800e24f50007f
:1011c8000a003a001e409000614060000080fb0069
:1011d8004f00dd0082118000f1ff270081006100cf
:1011e80001007000801188003342a8000080fa00d6
:1011f800000006000200fa00004f7800114798002e
:101208001e407800e14f500005003a001e40900053
:101218000004e00002003a002002a900170037008d
:101228001e407800e14f500005003a001e40900033
:101238000004e000020032002002a8000f0037007e
:101248001e407800e24f500005003a001e40900012
:101258000004e00002003a003002a900070037004d
:101268001e407800e24f500004003a001e409000f3
:101278000004e000010032003002a8000080fa00fb
:10128800000006000400fa00004f7800114798009b
:10129800224798001e407800e14f500029003a008c
:1012a8002e409000e94f500005003a0000118000e0
:1012b8000010a0000020a000001188005000370096
:1012c8002e409000e84f500008003a001e40900061
:1012d8000004e00005003a00001180000010a100a1
:1012e8000020a10000118800450037002e40900022
:1012f800e84f500008003a001e409000e14f5000af
:1013080005003a00001180000010a0000020a10094
:10131800001188003a0037002e409000e84f500036
:1013280034003a001e409000e24f500033003a006b
:10133800001180000010a1000020a000001188000a
:101348002f0037001e407800e24f50002c003a0072
:101358002e409000e94f500005003a0080118000af
:101368000010a0000020a000801188002400370091
:101378002e409000e84f500008003a001e409000b0
:101388000004e00005003a00801180000010a10070
:101398000020a10080118800190037002e4090001d
:1013a800e84f500008003a001e409000e14f5000fe
:1013b80005003a00801180000010a0000020a10064
:1013c800801188000e0037002e409000e84f500032
:1013d8000b003a001e409000e24f500008003a000f
:1013e800801180000010a1000020a000801188005a
:1013f8000300370000000000010037000000000073
:101408000080fa00000006000800fa00004f78008b
:10141800110798004247980053479800644798007e
:101428001e407800e14f50001b003a000011800078
:101438000080a1000090a100001188002062a8008f
:1014480021a2a80020e2a80020c2a90020a2a90089
:101458002082a900101180000060a1000070a10086
:1014680010118800ee4090001e40780061ff0700d0
:10147800a0002000401188005e419000ce409000fe
:101488001e4078007fff070011c0b30010c0b300f2
:1014980038ff07001f0037001e407800e24f500059
:1014a8001c003a00801180000080a1000090a1007b
:1014b800801188003062a80031a2a80030e2a8009c
:1014c80030c2a90030a2a9003082a9009011800082
:1014d8000060a1000070a100901188003002a900ee
:1014e800801180004300de00614060009e00900093
:1014f800affe0700c01188005e419000ce4090000a
:101508001e4078005fff070011c0b30020c0b30081
:1015180018ff07000080fa00000006000400fa0027
:10152800204798000040eb00004f78002e409000c4
:10153800ddfe0700104798001e80fb000180200098
:101548001e419000827078001e4fe8001e409000f7
:10155800ed4f5000f5ff3a001e80fb00018020008f
:10156800d2c0b300827078001e4fe80000802000cf
:101578000080fa00000006000a00fa0040479800c0
:1015880032079800430798006000b800008fbe003b
:101598004e409000e14f500014003a003e01900088
:1015a800ce0190000000200001f823003ffc070056
:1015b800008fbe000268290083b924001e00be0007
:1015c80000fd0700020020000300240037fc07008c
:1015d8000200200003f82300d6fb070086fc070062
:1015e80000007800a00c8800470037004e409000ab
:1015f800e24f500014003a003e019000ce019000e6
:101608000000200001f8230028fc0700008fbe001e
:101618000268290083b924001e00be00e9fc070007
:10162800020020000300240020fc07000200200024
:1016380003f82300bffb07006ffc070000007800d9
:10164800f00c8800300037004e409000e34f500007
:1016580014003a003e019000ce01900000002000e6
:1016680001f8230011fc0700008fbe000268290062
:1016780083b924001e00be00d2fc0700020020002f
:101688000300240009fc07000200200003f82300df
:10169800a8fb070058fc070000007800400d8800f0
:1016a800190037004e409000e44f500016003a00f1
:1016b8003e019000ce0190000000200001f82300b8
:1016c800fafb0700008fbe000268290083b92400d6
:1016d8001e00be00bbfc070002002000030024001f
:1016e800f2fb07000200200003282400effb07009c
:1016f8000200200003f823008efb07003efc0700d1
:1017080000007800900d88000080fa0000000600b4
:101718000400fa00004f7800110798001e40780076
:10172800e14f500003003a001e009000b00c880002
:10173800110037001e407800e24f500003003a00c5
:101748001e009000000d88000b0037001e40780036
:10175800e34f500003003a001e009000500d88002f
:10176800050037001e407800e44f500002003a00a0
:101778001e009000a00d88000080fa0000000600fe
:101788000800fa00004f7800120798002307980015
:10179800310798001e407800e14f500017003a00ca
:1017a800800880000040a1000050a1008008880047
:1017b80011e1a8009021ef009221ef00900c800029
:1017c800f001b300900c8800800c800000a0a100fc
:1017d80000b0a10000c0a100800c88001e0190008c
:1017e800ae0190001e40780063ff0700be00900025
:1017f8001e407800c6ff07004d0037001e407800e5
:10180800e24f500017003a00800880000040a10015
:101818000050a1008008880011e1a8009a21ef007b
:101828009c21ef00e00c8000f001b300e00c880080
:10183800d00c800000a0a10000b0a10000c0a10051
:10184800d00c88001e019000ae0190001e40780068
:1018580049ff0700be0090001e407800acff07005b
:10186800330037001e407800e34f500017003a005d
:10187800800880000040a1000050a1008008880076
:1018880011e1a800a421ef00a621ef00300d80008f
:10189800f001b300300d8800200d800000a0a100e9
:1018a80000b0a10000c0a100200d88001e0190001a
:1018b800ae0190001e4078002fff0700be00900088
:1018c8001e40780092ff0700190037001e4078007c
:1018d800e44f500016003a00900880000040a10034
:1018e8000050a0009008880013e1a800ae21ef0086
:1018f800b021ef00800d8000f001b300800d88005a
:10190800700d800000a0a00000b0a10000c0a100e0
:10191800700d88001e019000ae0190001e407800f6
:1019280015ff0700be0090001e40780078ff0700f2
:101938000080fa00000006000200fa00004f78005c
:10194800114798001e407800e14f50000f003a0000
:101958001e4090000004e00006003200800c800069
:101968000000a1000010a0000020a000800c88004a
:101978003b003700800c80000000a1000010a1008f
:101988000020a100800c8800350037001e40780038
:10199800e24f50000f003a001e4090000004e000a3
:1019a80006003200d00c80000000a1000010a0004a
:1019b8000020a000d00c880029003700d00c80003f
:1019c8000000a1000010a1000020a100d00c880098
:1019d800230037001e407800e34f50000f003a0004
:1019e8001e4090000004e00006003200200d800038
:1019f8000000a1000010a0000020a000200d880019
:101a080017003700200d80000000a1000010a10081
:101a18000020a100200d8800110037001e4078002a
:101a2800e44f50000e003a001e4090000004e00011
:101a380006003200700d80000000a1000010a00018
:101a48000020a000700d880005003700700d800090
:101a58000000a1000010a1000020a100700d880066
:101a68000080fa00000006002600fa00101798000f
:101a7800416798000000eb00000f78001e109000ee
:101a88000000e00021003a000e80e8001e0040003f
:101a980001c3b300014878001e0fe8000e80e8007b
:101aa8001e004000d1c0b300014878001e0fe800b6
:101ab8000e80e8001e0037004e6090000080fb009a
:101ac8009e10900000017800110009008280d80063
:101ad8008000fd000040780002c3b300824040004f
:101ae8000e80e8001e004000014878001e0fe80044
:101af8004e6090000080fb009e109000000178006e
:101b0800110009008280d800101798001e1090005c
:101b18000000e000e8ff3a000e80e8001e004000e8
:101b2800d1c0b300014878001e0fe8000e80e8001d
:101b38000080fa00000006001a00fa00881f7800ea
:101b4800200f9800310f9800025f9800a0c0b300e2
:101b5800604f98000000eb005007980018c0b300d1
:101b68006011b8002e089000be08900020fb070006
:101b78000000e000010035000044eb000804e0002c
:101b8800050032002e089000be08900001f0a20067
:101b9800200f9800310f98000000200001f023006a
:101ba80010079800210798000000eb0050079800e4
:101bb8000a00370002002000031224001e009000d3
:101bc800ae009000b9fa07001007980021079800a6
:101bd8005e0090000000e800500798000e58900042
:101be8008080fb005e009000808f5000f1ff3e0077
:101bf8001e019000ae0190002e089000be089000d3
:101c08004dfa0700200f9800310f98002e08900019
:101c1800be089000f8fa0700000f78001e00780050
:101c28008000eb0012fb07000001be002e089000a8
:101c3800be0890003ffa0700300798004107980057
:101c48001e0078000000e00021003a00a189200071
:101c58005e0090000080400001c3b3000148780096
:101c68005e0090000000e800500798001800370058
:101c78006e4890000080fb009e007800000178000c
:101c8800110009008280d8008000fd000040780023
:101c98000043b00080407800a28920005e009000d8
:101ca80000004100014878005e0090000000e80054
:101cb800500798006e4890000080fb009e00780056
:101cc80000017800110009008280d800000f780018
:101cd8001e0078000000e000e5ff3a005e0090007a
:101ce8000000e900000f98000000eb006007980072
:101cf8000c003700de0090006e009000008050005d
:101d0800a1892000e1407800a28b20006e0090009d
:101d180000004100014878006e0090000000e800d3
:101d280060079800ee0090000e089000808f500029
:101d3800f0ff3900a18b20005e0090000080400079
:101d4800e1c2b300014878005e0090000000e8009e
:101d580050079800200037000200200003122400da
:101d68003e009000ce00900016fb07003007980058
:101d7800410798003e009000ce0090009efa0700b0
:101d880000007800205798002e5090000043b000c3
:101d980080407800a28b20005e0090000000410087
:101da800014878005e0090000000e80050079800a5
:101db8002e5090000080fb00cf80de00a9fa0700bb
:101dc8000001be003e009000ce009000d9f9070047
:101dd80030079800410798000e5890000080fb00db
:101de8000000ea004f00de00004078008e589000a6
:101df8008140e900015f98000004e000d6ff3a0046
:101e0800a18b20005e00900000804000d1c0b3008c
:101e1800014878005e0090000000e8005007980034
:101e2800a08b20004f0478000080fa000000060014
:101e38000600fa0010079800210798000e003700e6
:101e48002e009000104f78001e00900090407800ff
:101e58002e009000014878002e0090000000e90054
:101e6800200798001e0090001e4878001e00900071
:101e78000000e80010079800ae0090001e009000d7
:101e8800808f5000eeff3e000080fa000000060040
:101e98000800fa002007980031079800be0090005b
:101ea800010f78002e019000120798001e00900084
:101eb8000000e00003003d002e0090000000ea0052
:101ec80020079800ae009000a000200000017800d4
:101ed800110009008200d8008000fd000040780051
:101ee8000043b000804078001e0078000148780068
:101ef8001e0fe800ae009000a0002000000178004e
:101f0800110009008200d800200798002e009000d8
:101f18000000e000ebff3a001e0090000000e00027
:101f280004003d001e007800d1c2b30001487800cb
:101f38001e0fe8001e0078008040eb000148780082
:101f48001e00e900800078003e009000b8ff0700fe
:101f58000080fa00000006000600fa00100798004a
:101f6800210798000000eb00000f78000000eb004c
:101f7800000f7800090037002e0090001e00400076
:101f88009e0090000080400090407800a08d2000c6
:101f98001e004000014878001e0fe8001e0078006f
:101fa8009e0090000080400010407800ed4f5000e7
:101fb800f1ff3a00a08d20001e004000d1c0b30000
:101fc800014878001e0fe800a08d20000080fa006c
:101fd800000006000a00fa00c40007000000eb0039
:101fe800000f78000042eb0083c0b3000041eb0013
:101ff8000140280010c0b30003fd07000042eb00b9
:1020080083c0b3000041eb000158220020c0b30098
:10201800fdfc07008000eb0002002800b3532400f9
:1020280010c0b300d6fd07008000eb0002002800b6
:10203800b353240020c0b300d1fd07008000eb009b
:1020480002002800b353240030c0b300ccfd0700c1
:1020580011002000020020008324240040c0b300a7
:10206800c7fd07008040eb0010c0b30032fe070038
:102078008040eb0020c0b3002ffe07008040eb003b
:1020880030c0b3002cfe070011c0b30040c0b3003d
:1020980029fe0700db0007000000eb00000f7800b6
:1020a80004003700817c280020c0b30019fc070019
:1020b8001e0fe8001e007800ea0f5000f9ff3400f8
:1020c8000300370000000000010037000000000096
:1020d80010118000610060000000e000390032004b
:1020e80010c0b3000dfd0700100798003100200054
:1020f8001e00900098ff0700200798009e0090009f
:1021080020c0b30003fc07009e00900010c0b3007d
:1021180000fc070022002000017d28001e0090001e
:10212800c6fa07000000e00009003a00a2002000fb
:102138008000eb002e009000d4fa07000000780021
:102148008000780010c0b30071fd07001d00370043
:1021580022002000317d28001e009000b7fa0700f9
:102168000000e00009003a00a20020008000eb0017
:102178002e009000c5fa0700000078008000780063
:1021880020c0b30062fd07000e00370022002000c7
:10219800617d28001e009000a8fa07000000e000fa
:1021a80008003a00a20020008000eb002e009000fa
:1021b800b6fa0700000078008000780030c0b3004d
:1021c80053fd070090118000610060000000e000ee
:1021d800bcff320020c0b300d0fc070030079800d5
:1021e800be00900010c0b300cafb070031002000f9
:1021f8003e00900058ff070040079800220020008a
:10220800017d28003e0090008cfa07000000e000e5
:102218000e003a0022002000917d28004e00900018
:1022280086fa07000000e00004003a0011c0b3007d
:1022380010c0b300c0fd0700a5ff37008040eb00c9
:1022480010c0b300bcfd0700a1ff3700220020002a
:10225800317d28003e00900078fa07000000e00079
:102268000e003a0022002000917d28004e009000c8
:1022780072fa07000000e00004003a0011c0b30041
:1022880020c0b300acfd070091ff37008040eb0091
:1022980020c0b300a8fd07008dff370022002000f2
:1022a800617d28003e00900064fa07000000e0000d
:1022b80086ff3a0022002000917d28004e00900001
:1022c8005efa07000000e00004003a0011c0b30005
:1022d80030c0b30098fd07007dff37008040eb0059
:1022e80030c0b30094fd070079ff37000000fa0002
:1022f8000080eb006019880010002000001688009c
:102308000080eb0040168800113a8000f00b200096
:102318000081600060042000710520002374200003
:102328008049780081497800824978002135800009
:1023380000fe2f00008060002035880031358000c5
:1023480000fe2f00008060000000a00030358800eb
:102358001136800000fe2f00008060003000b300be
:102368001036880011368000f00f2e008080600043
:10237800005020000100700010368800713680007f
:10238800f00f2e0080806000002021000100700006
:10239800703688007136800000fe2f0000806000d3
:1023a8003001b3007036880061368000f00f2e00cf
:1023b80080806000004021000100700060368800c5
:1023c80051368000f00f2e00808060000050210000
:1023d8000100700050368800113a80000004200087
:1023e80001017000600420007105200023742000a2
:1023f8008049780081497800824978000080fa0095
:10240800000006000000fa002c03a900e0ff2f00de
:102418006019880020002200001988002223ef009c
:1024280000fa2100201988002823ef003023ef004c
:1024380021e3a8000080fa00000006000200fa006c
:10244800004f78009e40780061c060000080fb006b
:102458004f00dd0002198000f1ff270081006100b4
:1024680001007000001988000080fa0000000600d2
:102478000400fa00204798000000eb00000f7800e5
:102488002023a800010037001e0fe800701a26005c
:102498009e007800808f5000fbff34002023a900a5
:1024a8000000000000198000610060000000e000ea
:1024b800fcff3200001880000080fa0000000600cf
:020000040000fa
:1024c800da080000200000000000000000080000fa
:1024d80050000000000000009a08000040000000c2
:1024e80000000000500800004a0000000200000040
:1024f8003031320033343500363738003961620004
:102508006364650066676800696a6b006c6d6e00dd
:102518006f707100727374007576770078797a003d
:1025280000000000211511000e0d0c000b0b0a0015
:102538000a0909000909090008080800080808002c
:10254800080707000707070007070700070707002e
:1025580007070000fa08000004000000000000005f
:04256800000000006f
:020000040000fa
:020000040001f9
:0457f000ffff0000b7
:020000040000fa
:020000040001f9
:0457f400ffff0000b3
:020000040000fa
:020000040001f9
:0457f8009efa000015
:020000040000fa
:020000040001f9
:0457fc00ff7f00002b
:00000001FF
